{
  "contractName": "Tally",
  "abi": [
    {
      "anonymous": false,
      "inputs": [
        {
          "indexed": false,
          "internalType": "string",
          "name": "method",
          "type": "string"
        },
        {
          "indexed": false,
          "internalType": "uint256",
          "name": "count",
          "type": "uint256"
        },
        {
          "indexed": false,
          "internalType": "address",
          "name": "caller",
          "type": "address"
        }
      ],
      "name": "Count",
      "type": "event"
    },
    {
      "inputs": [],
      "name": "count",
      "outputs": [
        {
          "internalType": "uint256",
          "name": "",
          "type": "uint256"
        }
      ],
      "stateMutability": "view",
      "type": "function"
    },
    {
      "inputs": [],
      "name": "increase",
      "outputs": [],
      "stateMutability": "nonpayable",
      "type": "function"
    },
    {
      "inputs": [],
      "name": "decrease",
      "outputs": [],
      "stateMutability": "nonpayable",
      "type": "function"
    },
    {
      "inputs": [],
      "name": "getCount",
      "outputs": [
        {
          "internalType": "uint256",
          "name": "",
          "type": "uint256"
        }
      ],
      "stateMutability": "view",
      "type": "function"
    }
  ],
  "bytecode": "0x608060405234801561000f575f80fd5b506103a48061001d5f395ff3fe608060405234801561000f575f80fd5b506004361061004a575f3560e01c806306661abd1461004e578063a87d942c1461006c578063d732d9551461008a578063e8927fbc14610094575b5f80fd5b61005661009e565b6040516100639190610163565b60405180910390f35b6100746100a3565b6040516100819190610163565b60405180910390f35b6100926100ab565b005b61009c6100fb565b005b5f5481565b5f8054905090565b5f8081546100b8906101a9565b919050819055507fcf24299ebc95eedbb801565154ed001c4042a10939aee23f07bf733753a9d9665f54336040516100f1929190610269565b60405180910390a1565b5f808154610108906102a3565b919050819055507fcf24299ebc95eedbb801565154ed001c4042a10939aee23f07bf733753a9d9665f5433604051610141929190610334565b60405180910390a1565b5f819050919050565b61015d8161014b565b82525050565b5f6020820190506101765f830184610154565b92915050565b7f4e487b71000000000000000000000000000000000000000000000000000000005f52601160045260245ffd5b5f6101b38261014b565b91505f82036101c5576101c461017c565b5b600182039050919050565b5f82825260208201905092915050565b7f44656372656173650000000000000000000000000000000000000000000000005f82015250565b5f6102146008836101d0565b915061021f826101e0565b602082019050919050565b5f73ffffffffffffffffffffffffffffffffffffffff82169050919050565b5f6102538261022a565b9050919050565b61026381610249565b82525050565b5f6060820190508181035f83015261028081610208565b905061028f6020830185610154565b61029c604083018461025a565b9392505050565b5f6102ad8261014b565b91507fffffffffffffffffffffffffffffffffffffffffffffffffffffffffffffffff82036102df576102de61017c565b5b600182019050919050565b7f496e6372656173650000000000000000000000000000000000000000000000005f82015250565b5f61031e6008836101d0565b9150610329826102ea565b602082019050919050565b5f6060820190508181035f83015261034b81610312565b905061035a6020830185610154565b610367604083018461025a565b939250505056fea2646970667358221220d80e67348059b6d592c6dbce72295fdc8a31082c6760f9047774f38bf8d9a58464736f6c63430008150033",
  "immutableReferences": {},
  "source": "// SPDX-License-Identifier: MIT\n\npragma solidity ^0.8.10;\n\ncontract Tally {\n\n    uint public count;\n\n    event Count(string method, uint count, address caller);\n\n    function increase() public {\n        ++count;\n        emit Count('Increase', count, msg.sender);\n    }\n\n    function decrease() public {\n        --count;\n        emit Count('Decrease', count, msg.sender);\n    }\n\n    function getCount() public view returns (uint) {\n        return count;\n    }\n\n}",
  "sourcePath": "/Users/kamjiayue/Desktop/Truffle-Solidity-Smart-Contract/contracts/Tally.sol",
  "compiler": {
    "name": "solc",
    "version": "0.8.21+commit.d9974bed.Emscripten.clang"
  },
  "schemaVersion": "3.4.16",
  "updatedAt": "2024-05-30T15:11:41.013Z",
  "devdoc": {
    "kind": "dev",
    "methods": {},
    "version": 1
  },
  "userdoc": {
    "kind": "user",
    "methods": {},
    "version": 1
  }
}